:020000040800F2
:10000000000F0020590200089D100008ED0F0008A5
:10001000991000089D0300089112000800000000DC
:100020000000000000000000000000006B0200085B
:10003000A103000800000000990200083512000822
:1000400073020008730200087302000873020008BC
:1000500073020008730200087302000873020008AC
:10006000730200087302000873020008730200089C
:10007000730200087302000873020008730200088C
:10008000730200087302000873020008730200087C
:10009000730200087302000873020008730200086C
:1000A000730200087302000873020008730200085C
:1000B0007302000800000000000000007302000846
:1000C000730200087302000873020008730200083C
:1000D000730200087302000873020008730200082C
:1000E0007302000873020008000000000000000016
:1000F0000000000000000000000000000000000000
:1001000000000000730200080000000073020008F5
:1001100000000000000000007302000873020008E5
:1001200073020008730200087302000873020008DB
:100130007302000800000000000000000000000042
:100140007302000873020008730200080000000038
:1001500073020008730200087302000873020008AB
:100160007302000873020008730200080000000018
:100170007302000873020008000000000000000085
:1001800073020008730200087302000800F002F80E
:1001900000F052F814A696E8000CB244B344DA45D5
:1001A00001D100F049F8BAE80F000FA696E8300038
:1001B000A5EB040504EB0607AAEB0704A7F101076A
:1001C0004FEA15154FEA3414A4F10104AC4201D3EF
:1001D00000F032F813F0010F18BFFB1A43F00103CF
:1001E00000F001F8DBE7184794110000B41100009B
:1001F000103A24BF78C878C1FAD8520724BF30C853
:1002000030C144BF04680C607047000070470000B4
:100210000023002400250026103A28BF78C1FBD80F
:10022000520728BF30C148BF0B6070471FB501F0AF
:1002300078F81FBD10B510BD00F076F81146FFF735
:10024000F5FF01F027F800F094F803B4FFF7F2FF90
:1002500003BC00F09BF800000948804709480047AC
:10026000FEE7FEE7FEE7FEE7FEE7FEE7FEE7FEE766
:10027000FEE7FEE704480549054A064B70470000C3
:10028000451200088D01000800090020000F002021
:10029000000B0020000B0020EFF308801EF0100F71
:1002A00000D00BD1A0F1A800F1EE101AA0E8F04F99
:1002B000A0EC200A02C0A0F1A80005E0A0F12400F3
:1002C000A0E8F04FA0F1240000F0AAFF00F01AB857
:1002D0001EF0100F00D004D100F019B802C8E1EEF2
:1002E000101A80F3088870470FB5054801604FF079
:1002F00001024FEA027341EA030101600FBD0000F1
:1003000004ED00E030C8B0E8C04FFFF7E1BFB0EC4B
:10031000080AB0EC084AB0EC088AB0EC08CAFFF74B
:10032000DDBF704770477047754600F02BF8AE464A
:1003300005006946534620F00700854618B020B5F1
:10034000FFF798FFBDE820404FF000064FF0000790
:100350004FF000084FF0000BAC46ACE8C009ACE829
:10036000C009ACE8C009ACE8C00921F007018D461E
:10037000704710B50446AFF300802046BDE810403A
:10038000FFF763BF004870471000002001491820A4
:10039000ABBEFEE72600020070470000FEE700004B
:1003A0007047000040F6F800C2F200000068704795
:1003B00040F2000040F6F801C2F20000C2F2000173
:1003C00000780A68104408607047000080B5032078
:1003D00000F07EF8052000F009F800281CBF01207D
:1003E00080BD00F02BF8002080BD0000B0B540F2C9
:1003F0000005C2F200052978F1B1044640F2080078
:10040000C2F200004FF47A720068B2FBF1F1B0FB67
:10041000F1F000F0D5FD01460F2C4FF001000AD895
:10042000002918BFB0BD4FF0FF302146002200F078
:1004300023F800206C60B0BD0120B0BD82B041F255
:100440005800C4F202008168002241F0010181607D
:10045000816801F0010101910199016841F0805129
:10046000016000680F2100F08050009000986FF04C
:10047000010002B0AFF3008010B54EF60C5CCEF276
:10048000000CDCF80030C3F3022E8EF00704042CBD
:1004900028BF0424BEF103034FF0FF3E0EFA04F41C
:1004A00038BF0023A14399400EFA03F39A43114346
:1004B00000F00F0200F160430901043A03F56443C0
:1004C0006244002848BF02F10C03197010BD0000FF
:1004D0004EF60C51CEF200010A684FF6FF031A40A7
:1004E00060F30A2242F0806040F0FD7008607047BF
:1004F00047F20001C4F200010A68B0F5007F02F47F
:10050000C06031D1B0F5007F2CD00868012262F3C1
:100510004A20086040F20800C2F20000006832225F
:1005200050434DF68362C4F21B32A0FB0202900CD2
:100530004A69520511D5421C0FD04A6952050CD5A3
:1005400058B14A69520508D5012806D04A695205B2
:1005500003D50228A0F10400EAD14869400544BF50
:100560000320704700207047B0F5806FFAD008680C
:10057000022262F34A2008600020704747F2000020
:10058000C4F20000006800F4C06070472DE9F04339
:1005900081B0002800F08C8042F20009C4F2020908
:1005A0000446D9F8000000F0070088420CD2D9F8C0
:1005B000000020F007000843C9F80000D9F8000047
:1005C00000F00700884273D1206841F2080610F05D
:1005D0000202C4F202060AD0A368376807F0F007E7
:1005E000BB4204D9376827F0F0073B433360C307A9
:1005F00034D0606856F8082C50B1022804D0032883
:100600000AD192010AD453E0920307D450E000BF0C
:10061000920703D44CE000BF520549D588463168A3
:1006200021F0030108433060FFF7BCFE054641F2AC
:10063000883700BF3068616800F00C00B0EB810FB4
:1006400008D0FFF7AFFE401BB842F3D9032001B03A
:10065000BDE8F0832068414600F0020252B1A26872
:10066000336803F0F0039A4204D2336823F0F003B6
:100670001A433260D9F8002002F007028A420CD9EE
:10068000D9F8002022F007020A43C9F80020D9F85F
:10069000002002F007028A420AD141070CD4000769
:1006A00012D43068716810F00C0019D11EE000BF40
:1006B000012001B0BDE8F0833168E26821F4E06117
:1006C000114331600007ECD53068216920F4605097
:1006D00040EAC10030603068716810F00C0005D04D
:1006E0000C282BD101F00301012927D156F8081C51
:1006F000042211F008016FF0070108BF8C21715826
:1007000008BF0822D14041F24C3201F00F01C0F67F
:10071000000252F8211000280A4618BF00220C28B7
:1007200038D1706800F00300022811D0032804BFFC
:1007300041F20021C0F27A010EE000BF04281FD070
:10074000082823D141F20022C0F27A0222E000BF41
:1007500042F20041C0F2F40170687268C0F3021006
:10076000C2F30622514372680130B1FBF0F0C2F3CC
:100770004161022202EB4101B0FBF1F20AE000BF4D
:1007800042F20042C0F2F40204E000BF0022002165
:100790000C28C6D0306841F23C31C0F30310C0F6DB
:1007A0000001085C00F01F0022FA00F140F2040092
:1007B000C2F2000040F208020068C2F200021160BA
:1007C00001B0BDE8F043FFF711BE0000002804BFF0
:1007D000012070472DE9F04383B041F20006044642
:1007E000C4F20206B068F168227800F00C09D00665
:1007F00001F003081ED42078C00700F08880B9F10A
:10080000080F00F07D80B9F10C0F08BFB8F1030F9D
:1008100076D061683068B1F5803F07D0B1F5A02F80
:1008200040F0528240F480203060306840F48030E4
:10083000306053E2B9F1000F1CD0B9F10C0F08BFC2
:10084000B8F1010F16D0A1693068002900F0A0812D
:1008500040F001003060FFF7A5FD054630688007D5
:1008600000F1A881FFF79EFD401B02284FF0030016
:10087000F4D960E33068800703D5A069002800F050
:100880000F83256A3068000700F14A81D6F894008A
:10089000000900F0F000854200F248813068B9F1AB
:1008A000000F40F008003060306820F0F00040EAAF
:1008B000050030607068E16920F47F4040EA012063
:1008C000706040F0B882B06DC00000F15582B06D2C
:1008D00040F08050B065B06D00F0805002900298FA
:1008E000FFF74CFEB16D21F08051B165B0F5007F8E
:1008F00000F04882802D40F2858203208DE200BF07
:100900003068800303D56068002800F0C982207831
:1009100080072DD5B9F1040F1CD0B9F10C0F08BF19
:10092000B8F1020F16D0E1683068002900F0E681C6
:1009300040F480703060FFF735FD054630684005B3
:100940000FD4FFF72FFD401B02284FF00300F5D90D
:10095000F1E200BF3068400503D5E068002800F0F0
:100960009F827068216920F0F85040EA0160706051
:100970002078000760D42078400779D4207880065A
:1009800000F1B280A06A002800F01683022840F02F
:100990002381F068E16A00F003028A4240F034816A
:1009A000226B6FF00F0300F0700103EB0212914213
:1009B00040F02A81616B00F4FE42B2EB012F40F05F
:1009C0002381A16B00F07842B2EBC16F40F01C8133
:1009D000E26B0023CFF6E07303EA025200F4C00199
:1009E000A2F50012914240F00F81216C4FF07E423F
:1009F00002EA016100F0C06001F17E41884240F0EE
:100A000003813068800100F1D782306840F0807047
:100A10003060F06840F08070F060FFF7C3FC04467F
:100A20003068800100F1C882FFF7BCFC001B02287F
:100A30004FF00300F4D97EE26169D6F894000029F2
:100A400000F0908040F00100C6F89400FFF7AAFC87
:100A5000054600BFD6F8940080078CD4FFF7A2FCAF
:100A6000401B0228F6D9032003B0BDE8F08300BF85
:100A7000B06D5FEAC00808D4B06D40F08050B0653A
:100A8000B06D00F080500090009847F20007C4F26B
:100A900000073868C00513D4386840F480703860A7
:100AA000FFF780FC054600BF3868C00508D4FFF793
:100AB00079FC401B02284FF00300F5D93BE200BF50
:100AC000A168D6F89000012908D0052940F0DC8003
:100AD00040F00400C6F89000D6F8900040F0010005
:100AE000C6F89000DCE000BF616AD6F898000029E3
:100AF00000F0B48040F00100C6F89800FFF752FC07
:100B0000054600BFD6F8980080073FF53BAFFFF7DA
:100B100049FC401B02284FF00300F3D90BE200BF51
:100B2000306800F0F00085427FF6B8AEB06DC000CE
:100B300000F18680B06D40F08050B065B06D00F07F
:100B4000805001900198FFF719FDB16D21F080519F
:100B5000B165B0F5007F79D0802D40F2E1800320AF
:100B6000E9E000BF20F00100C6F89400FFF71AFC8E
:100B7000054600BFD6F8940080077FF5FCAEFFF76E
:100B800011FC401B02284FF00300F3D9D3E100BF52
:100B900020F001003060FFF705FC05463068800753
:100BA0007FF529AEFFF7FEFB401B02284FF0030044
:100BB000F4D9C0E1306840F0080030603068D4E912
:100BC000071220F0F00010433060706820F47F407E
:100BD00040EA012070600EE6B9F10C0F00F0608170
:100BE000306820F080703060FFF7DCFB044600BF07
:100BF0003068800140F1EA80FFF7D4FB001B022837
:100C00004FF00300F4D996E1B9F10C0F00F04881E0
:100C10003068400100F14481306820F0807030601D
:100C2000FFF7C0FB054600BF3068800140F18681B8
:100C3000FFF7B8FB401B02284FF00300F4D97AE11C
:100C4000FFF79CFCB0F5007F7FF486AF812D71D358
:100C50000120A02D88BF02206DE000BF20F0010020
:100C6000C6F89800FFF79EFB054600BFD6F898002F
:100C700080077FF587AEFFF795FB401B02284FF0FA
:100C80000300F3D957E100BF20F00100C6F890003F
:100C9000D6F89000002920F00400C6F8900079D022
:100CA000FFF780FB054641F2883700BFD6F8900079
:100CB000800700F18180FFF775FB401BB842F5D932
:100CC000032003B0BDE8F08320F48030306030684A
:100CD000002920F48020306000F08480FFF762FB60
:100CE000054600BF306880033FF511AEFFF75AFBA1
:100CF000401B64284FF00300F4D91CE120F48070FD
:100D00003060FFF74FFB0546306840057FF530AE99
:100D1000FFF748FB401B02284FF00300F4D90AE11B
:100D2000A5F17000B0FA80F04009802D08BF0220C4
:100D300001E000BF002042F20001C4F202010A6893
:100D400022F0070202440A60096801F007018142AB
:100D500040F0A680306840F0080030603068D4E988
:100D6000071220F0F00010433060706820F47F40DC
:100D700040EA012070605EE0FFF700FCB0F5007F04
:100D80007FF4B8AD812D47D30120A02D88BF02206C
:100D900043E000BFFFF706FB054641F2883700BF7E
:100DA000D6F89000800707D5FFF7FCFA401BB84241
:100DB0004FF00300F4D9BEE0B8F1000F3FF5DEAD0F
:100DC000B06D20F08050B065D8E500BFF0684FF6F8
:100DD000FC71CFF6EE610840F060002003B0BDE882
:100DE000F08300BFFFF7DEFA054600BF30688003DE
:100DF0007FF58DADFFF7D6FA401B64284FF0030056
:100E0000F4D998E0A5F17000B0FA80F04009802D87
:100E100008BF022001E000BF002042F20001C4F23E
:100E200002010A6822F0070202440A60096801F020
:100E30000701814234D1B068F16810F00C0005D090
:100E40000C2831D101F0030101292DD1314651F88F
:100E5000942B12F00802324608BF0A464FF00401F4
:100E6000126808BF082122FA01F141F24C3201F068
:100E70000F01C0F6000252F8211000280A4618BFE0
:100E800000220C283CD1F06800F00300022815D0A5
:100E9000032804BF41F20021C0F27A0112E000BF32
:100EA000012003B0BDE8F08304281FD0082823D117
:100EB00041F20022C0F27A0222E000BF42F2004179
:100EC000C0F2F401F068F268C0F30210C2F3062227
:100ED0005143F2680130B1FBF0F0C2F341610222EC
:100EE00002EB4101B0FBF1F20AE000BF42F2004226
:100EF000C0F2F40204E000BF002200210C28C2D09E
:100F0000B06841F23C31C0F30310C0F60001085C48
:100F100000F01F0022FA00F140F20400C2F20000CB
:100F200040F208020068C2F200021160FFF75EFAA8
:100F300000283FF460AC03B0BDE8F083F06848F2ED
:100F40008C01C0F29D1104F12C0700EA010C8ECF38
:100F50006FF00F00D4E90F5400EB02100022CFF61F
:100F6000E07241EA0C0102EA05520843A2F50012C0
:100F70004FF07E4540EA032005EA0465104305F181
:100F80007E4540EAC7602843F060306840F08070DA
:100F90003060F06840F08070F060FFF703FA0446BC
:100FA0003068800108D4FFF7FDF9001B02284FF0DC
:100FB0000300F5D9BFE700BF002003B0BDE8F08310
:100FC000411E0020B0EB116F1CBF012070474EF294
:100FD0001002CEF2000251604EF62351CEF2000113
:100FE000F0230B700721906011607047FEE700004E
:100FF00082B000F0AFF840F2B00441F25925C2F2DD
:10100000000440F2F402C0F60005C2F200022046DD
:1010100001214FF48073009500F0D6F841F2752C51
:1010200004F1200540F2F842C0F6000CC2F20002C2
:10103000284601214FF48073CDF800C000F0C4F8B9
:10104000204600F02DF8284600F02AF800F092F82B
:10105000FEE7000083B041F24C00C4F202000168D8
:1010600041F004010160016801F00401029102995C
:10107000016841F080010160016801F08001019187
:101080000199016841F001010160006800F0010070
:101090000090009803B07047FEE70000FEE70000F4
:1010A00040F2700CC2F2000C9CF82C1000291CBFFE
:1010B00000207047624652F8281F034611B10B68A2
:1010C0000A4641600360DCF8241058601060481C38
:1010D000CCF8240001207047B0B540F2700CB0F19C
:1010E000FF32C2F2000C71F100024FF00005DCE9A2
:1010F0000C3E38BF0125421C41F10004002D04BF05
:101100000C46024613E000BFDCE90C01C01A61EB9B
:101110000E01801A71EB040028BFB0BDDCE90C01A0
:10112000C01A61EB0E01801A71EB040011D2DCE9E8
:101130000C01C01A61EB0E01801A71EB040008D299
:10114000DCE90C01C01A61EB0E01801A71EB04009E
:10115000DAD3B0BD40F27000C2F20000002180F886
:101160003810C0E90C1180F82C10C0E90801816228
:101170007047000040F27000C2F20000816A00294E
:101180001EBF4160012180F83810704740F27000A6
:10119000C2F2000090F83810012918BF7047D0E95A
:1011A0000C12013142F10002C0E90C12006AD0E9D0
:1011B0000212531C8A42C36004D10021C160FFF7B0
:1011C00093B800BF70470000B0B502EB830200F196
:1011D0000807A2F1040E002487E8124000F1140170
:1011E000DDF810C0A2F1440581E8281042E911445D
:1011F00042E90F4442E90D4442E90B4442E9084404
:1012000042E9064442E90444C0696FF0060142F82D
:10121000080C4FF0807042F8241C42F8040CB0BD5A
:1012200040F27001C2F200010A6A53689061986945
:101230000B62704780B5FFF7BBF8BDE88040FFF751
:10124000A5BF00004EF68850CEF20000016841F4C0
:10125000700101607047000040F2F004C2F2000427
:1012600020680021013020604FF47A70FFF734FFCE
:10127000F6E7000040F2F444C2F2000420680021C6
:10128000013020604FF4FA60FFF726FFF6E7000018
:10129000FEE7000096B0FFF799F80020CDE90D00B9
:1012A000CDE90B00CDE90900CDE907004FF400704E
:1012B000FFF71EF920B1EFF3108072B6FEE700BF12
:1012C0000120032405904FF48031CDE91040142013
:1012D0000691022112900720CDE9130105A80F9174
:1012E0001591FFF773FA28B1EFF3108072B600BFC3
:1012F000FEE700BF0F20CDE900040020CDE9020089
:10130000049068460421FFF741F928B1EFF31080FB
:1013100072B600BFFEE700BFFFF79CFEFFF768FE56
:10132000FEE7F1EE100A4FF6FF71C0F2C03120EA7D
:10133000010040F04070E1EE100A7047000000002C
:10134000000000000102030406070809A08601004E
:10135000400D0300801A060000350C0040420F00CB
:1013600080841E0000093D0000127A000024F40071
:1013700000366E010048E801006CDC02A013000892
:101380000000002010000000F0010008B013000869
:1013900010000020F00E0000100200080000000005
:1013A000010000001000000000093D0000000000E6
:040000050800018D61
:00000001FF
